:020000040800F2
:10000000201B002001030008E53F0008E12E000846
:10001000E13F000841170008F14B00080000000014
:10002000000000000000000000000000B1480008CF
:100030004517000800000000AD480008B54800085A
:100040001B0300081B0300081B0300081B03000818
:100050001B0300081B0300081B0300081B03000808
:100060001B0300081B0300081B0300081B030008F8
:100070001B0300081B0300081B0300081B030008E8
:100080001B0300081B0300081B0300081B030008D8
:100090001B0300081B0300081B0300081B030008C8
:1000A0001B0300081B0300081B0300081B030008B8
:1000B0001B0300081B0300081B0300081B030008A8
:1000C0001B0300081B0300081B0300081B03000898
:1000D0001B030008754B0008814B00089D4B00086E
:1000E0001B0300081B0300081B0300081B03000878
:1000F0001B0300081B0300081B0300081B03000868
:100100001B0300081B0300081B0300081B03000857
:100110001B030008814900081B03000875490008FB
:100120001B0300081B0300081B0300081B03000837
:100130001B03000800000000000000001B03000873
:100140001B0300081B0300081B0300081B03000817
:100150001B0300081B0300081B030008A94B000831
:100160001B0300081B0300081B0300081B030008F7
:100170001B0300081B030008000000000000000033
:100180001B0300081B03000800F002F800F0A8F8A9
:1001900014A696E8000CB244B344DA4501D100F04D
:1001A0009FF8BAE80F000FA696E83000A5EB04050B
:1001B00004EB0607AAEB0704A7F101074FEA1515A0
:1001C0004FEA3414A4F10104AC4201D300F088F8E2
:1001D00013F0010F18BFFB1A43F0010300F001F800
:1001E000DBE71847AC5F0000CC5F0000103A24BF8B
:1001F00078C878C1FAD8520724BF30C830C144BF8C
:1002000004680C6070470000704700000023002461
:1002100000250026103A28BF78C1FBD8520728BF16
:1002200030C148BF0B6070476E2900F01D827029F5
:1002300000F05F83662905F08582652905F08282DA
:10024000672905F07F82612905F07E8203681B0A19
:1002500028BF41F08001692900F0CA81642900F0BB
:10026000C781752900F0C4816F2900F0ED827829DB
:1002700000F02B83E92900F08782E42900F08482D2
:10028000F52900F08182EF2900F0EA82F82900F0D8
:100290002A830368DB0928BF41F08001632901F04C
:1002A0002B80732901F03080E32901F03B80F32992
:1002B00001F04080002070471FB505F036FA01F0CC
:1002C00093F804000020002105F0A2F9401C6060B2
:1002D0000020002105F086F9E0601FBD10B510BDBB
:1002E00001F054F81146FFF7E7FF04F083FC01F03A
:1002F00031F903B4FFF7F2FF03BC01F035F9000058
:100300000948804709480047FEE7FEE7FEE7FEE7A9
:10031000FEE7FEE7FEE7FEE7FEE7FEE704480549E5
:10032000054A064B70470000614900088901000832
:1003300020150020201B002020170020201700205F
:1003400053EA020C00F069802DE9F04B4FF00006F3
:10035000002B1FBFB3FA83F503FA05F424FA05F660
:100360005E4012BF1643B2FA82F502FA05F4C5F1F7
:1003700020051EBF22FA05FC44EA0C04203556EA8B
:10038000044C4FEA144418BF641C4FF000084FF0AF
:100390000009904271EB030C39D3002919BFB1FA5F
:1003A00081F701FA07F6B0FA80F700FA07F6C7F10D
:1003B00020071EBF20FA07FC46EA0C062037B6FBD2
:1003C000F4FCA7EB0507103F07F01F0BCBF120064D
:1003D0002CFA06F60CFA0BFB44BFB3460026202F7E
:1003E000A4BF5E464FF0000B5BEA060C08BF4FF05F
:1003F000010B19EB0B0948EB0608ABFB027C06FB73
:1004000002CC0BFB03CCC01B71EB0C01C1E70B460C
:10041000024641464846BDE8F08B13B5084318BF75
:100420004FF0FF300146AFF30080BDE81C4070473D
:100430001CB50C46064B7B4469460090204600F0F4
:100440002CF904460020694600F03AF920461CBD0C
:10045000870200004FF0000200B51346944696460E
:10046000203922BFA0E80C50A0E80C50B1F12001C7
:10047000BFF4F7AF090728BFA0E80C5048BF0CC075
:100480005DF804EB890028BF40F8042B08BF7047D3
:1004900048BF20F8022B11F0804F18BF00F8012B45
:1004A000704700000000000030B44FF0013C50F8ED
:1004B000042B51F8043BCCFA52F4D51A20D1FCB9E4
:1004C00050F8042B51F8043BCCFA52F4D51A17D14A
:1004D000B4B950F8042B51F8043BCCFA52F4D51AB5
:1004E0000ED16CB950F8042B51F8043BCCFA52F4FD
:1004F000D51A05D1002CDAD030BC4FF0000070477F
:1005000029BAB1FA81F111F01801D1F1200084402B
:10051000F2D1CA40CB4012F0FF0213F0FF0330BC0F
:10052000D01A704770477047704770B504468569A8
:100530000068C10601D5302600E02026C00707D09C
:1005400070BDD4E9012130469047206A401C2062EA
:100550006D1EF6D570BD70B5044685690078C0077C
:1005600007D170BDD4E9012120209047206A401CAA
:1005700020626D1EF6D570BD09684A0501D540B2EE
:100580007047C905FCD500B2704709684A0501D516
:10059000C0B27047C905FCD580B2704770B50C4633
:1005A0000546012A05D02878800600D5EA6900238F
:1005B00002E0012305E05B1C934202D2E05C0028CC
:1005C000F9D1A869E618C01AA861286A18442862F7
:1005D0002846FFF7AAFF04E0D5E9012114F8010B32
:1005E0009047B442F8D32846FFF7B5FF70BD00002E
:1005F0002DE9F0410646002410687529314616A5FC
:1006000010D0FFF7B9FF002802DA404213A507E037
:1006100031688A0701D512A502E0490704D511A562
:10062000012401E0FFF7B1FF00210A2206F12407AF
:1006300009E0B0FBF2FCB0FBF2F302FB1C0030302F
:1006400078541846491C0028F3D123462A463046E0
:10065000BDE8F04100F061BA000000002D0000008C
:100660002B0000002000000011680268006A53059A
:1006700001D508700AE0D30501D5088006E013060D
:1006800003D5C217C1E9000200E0086001207047ED
:1006900001694A1C02610878704700B58FB0CDE946
:1006A00001310021059105497944CDE90310114636
:1006B000684600F029F90FB000BD0000E5FFFFFF1C
:1006C0000A6802F8010B0A60704700002DE9FF5F1D
:1006D00015468A460446DFF8AC80F8440027D8E97E
:1006E00000103E46CDE9001010E03AF816106A46B8
:1006F00002A800F023FE411C07D02178890603D50B
:10070000E269391891420DD80744761C207880069A
:1007100002D5E069B84205DDAE42E6DB3AF81600E4
:100720000028E2D1A069C01BA0612046FFF7FDFEB2
:10073000D8E90010CDE90010002017E03AF81810B1
:100740006A4602A800F0FAFDB0F1FF3F81460BD0E7
:1007500000250DF1080B05E0D4E901211BF8050087
:1007600090476D1C4D45F7D308F10100B04280461B
:10077000E4DB206A384420622046FFF7ECFEBDE847
:10078000FF9F00006E5000002DE9F0418046D21D11
:1007900022F007020025D2E90002F52915A614D09F
:1007A000011E72F1000106DA0023D0EB030063EBB7
:1007B000020211A608E0D8F800108B0701D50FA699
:1007C00002E0490701D50EA601251146002408F1D3
:1007D000240704E000F05CF930323A55641C50EA1A
:1007E0000102F7D12B46324621464046BDE8F04192
:1007F00000F093B9000000002D0000002B00000065
:100800002000000030B4002100F1240408E002F0D0
:100810000705D208303542EA4372DB086554491CAB
:1008200052EA0305F3D10468002310A2250708D576
:1008300004F020040C4304D0C46901230CA2641EFC
:10084000C46130BC00F069B910B504462146106897
:10085000FFF79BFE02462046BDE810400023D1E78B
:10086000D21D22F00701D1E90023CBE700000000F0
:1008700030000000F0B40D460188090502D5214C76
:100880007C4402E01F4C7C440E34002100F124061D
:1008900008E002F00F071209E75D42EA03721B0944
:1008A0007754491C52EA0307F3D102780023120758
:1008B00004D5702D06D009B1022311342246F0BCB4
:1008C00000F02BB901231034F8E770B504460D464B
:1008D00021461068FFF759FE024629462046BDE82A
:1008E00070400023C6E7D21D22F00703D3E900239E
:1008F000C0E70368126843F0200303600823C36164
:100900000023B7E7D04E00002DE9F05F894604468A
:100910004FF0000ADFF874B1FB44C0F820A0204675
:10092000E1688847002874D0252806D0D4E9012141
:100930009047206A401C2062F1E700265F4620466F
:10094000E16888472028054607DB312D05D2781954
:1009500010F8200C08B10643F1E7B00701D526F0E6
:100960000406C4F81CA00027C4F818A02A2D09D03A
:10097000284604F02FFE38B304EB8708303DC8F852
:10098000185019E059F8041B204604EB87029161C6
:10099000E1688847012F054618D1E069002820DA70
:1009A00026F020061DE0D8F8180000EB800005EBCB
:1009B00040003038C8F818002046E16888470546EE
:1009C00004F008FE0028EED1012F0AD02E2D08D108
:1009D0002046E16888477F1C0546022F46F0200626
:1009E000C4DBA069002803DA404246F00106A0619A
:1009F000F00701D026F010066C2D0BD0682D09D021
:100A00004C2D39D06A2D35D0742D35D07A2D33D078
:100A100016E038E0E1682F4620468847B842054690
:100A200009D16C2F26D04FF48060E1680643204640
:100A30008847054604E06C2F1AD04FF480700643B7
:100A40000DB3A5F14100192802D8203546F40066FF
:100A50004A462946204626604E46FFF7E5FB80B110
:100A600001280BD0F61D26F0070000F1080956E713
:100A70004020E4E78020D8E70020D6E706F104090B
:100A80004DE7284652E7206ABDE8F09F604E00001F
:100A900030B5B0F10A0271F100034FEA900E4EEA50
:100AA000817EB0EB0E0061EB91014FEA101E4EEA21
:100AB000017E10EB0E0041EB11114FEA102E4EEAB1
:100AC000016E10EB0E0041EB11214FEA104E4EEA81
:100AD000014E10EB0E0041EB1141401841F10001B5
:100AE0004FEAD00040EA41704FEAD1014FEA810459
:100AF00044EA907410EB800544EB01046D1944EB5B
:100B00000404521BA3414FF0000348BF0A3200D532
:100B100030BD401C41F1000130BD2DE9F0470D46CC
:100B200099469246044600F124080168880604D5D7
:100B3000E06921F01001216000E00120A84201DD00
:100B4000471B00E00027A1697A1902EB0900081A87
:100B5000A0612078C00602D42046FFF7E6FC0026FC
:100B600008E0D4E901211AF806009047206A401CE9
:100B7000761C20624E45F4DB2078C0060AD520465C
:100B8000FFF7D3FC06E0D4E9012130209047206A2A
:100B9000401C2062381EA7F10107F4DC07E0D4E90D
:100BA000012118F805009047206A401C2062281E89
:100BB000A5F10105F3DC2046FFF7CDFC2078000607
:100BC00002D50220BDE8F0870120FBE72DE9FF4FA9
:100BD0000C461E464FF0FF378BB0D2E90001DDF81E
:100BE00060800A908A46C1F30A5505B93D46002146
:100BF00008464FF00000BAF1000F00F4400005DA9B
:100C000000EB80004FF4400101EA50004FEA905998
:100C1000B9F1010F00DDB9460A9850EA4A000ED03A
:100C200044F61050A5F2FF3545432F14B8F1000FDC
:100C30001ED07542291E1EDDC9F100021CE0B8F16C
:100C4000010F4FF0000001D0302103E0F24305E036
:100C50002154401CB042FBDB3046002200212154CD
:100C60000B99C1F80880C1E900200FB0BDE8F08FF2
:100C7000BD1B6D1CDEE74A4600DA694206A800F09B
:100C8000F7FB06AB93E8070003AB83E80700504689
:100C90000A9904F0BFF88DE80700A0F500501F384E
:100CA00000900398002D0ADD42F21F014A460844D5
:100CB000002303A90390684604F028FB09E0A0F58F
:100CC00000504A461F38002303A90390684604F0E9
:100CD00032FB8DE807000004000C03D04FF0FF301A
:100CE000410800E01046B8F1000F03D00022009246
:100CF00015461EE0751E05D4FFF7CAFE3032625558
:100D00006D1EF9D5B3460122084302D000227F1C94
:100D100004E02078302801D100227F1E002A0997A4
:100D200084D01DE0112D07DAFFF7B2FE3032625594
:100D30006D1C50EA0102F5D1084302D00098C8B1F9
:100D40000EE00021681E05E0235C625C63542254BF
:100D5000401E491C8142F7DBAB46A81B401E099090
:100D6000002004F80B000B98099AC0F80880C0E92D
:100D7000002B7AE711264FF0000857E72DE9F04FD6
:100D800088460446D21D22F0070191B0D1E9000146
:100D9000CDE90A0104F006FC02460B98C00F01D011
:100DA0002D2007E02068810701D52B2002E02021BB
:100DB00001EAC000032A099001D0072A05DB034697
:100DC0004146204600F014FB0BE12078800601D557
:100DD000E06900E00620B8F1650F814606D0B8F161
:100DE000660F18D0B8F1670F70D131E00020B9F16B
:100DF000110F009001DB112301E009F101030AAAA0
:100E000001A90CA8FFF7E2FEDDE90C70002609F14C
:100E10000105834647E001204B4600904FF0004714
:100E20000AAA01A90CA8FFF7D1FEDDE90DB00C99C3
:100E30005D46002610B909F101000D18B9EB050057
:100E400003D4C0F1FF3609F10105A5EB09002BE041
:100E5000B9F1010F01DA4FF001090020B9F1110FCA
:100E60000090484601DD112300E003460AAA01A9CB
:100E70000CA8FFF7ABFEDDE90C704D46002683465B
:100E8000207800070AD4AB4500DA5D4601A8012DA1
:100E900004DD411911F8011C302907D04F4502DA51
:100EA00017F1040F04DA012082460FE06D1EEEE711
:100EB000002F02DCED1B3E4403E0781CA84200DD5D
:100EC0007D1CB81B00F1010A4FF000472078000795
:100ED00003D4AA4501DB4FF0FF3A0021B7F1004FE0
:100EE0000DF143088DF8431024D002202B23002F4E
:100EF00001DA7F422D230A21021EA0F1010000DC4D
:100F00005FB197FBF1FC97FBF1F201FB1C7C1746EC
:100F10000CF1300C08F801CDEEE7A8F101000370E8
:100F20002188090501D5452100E06521A0F10108CE
:100F300000F8011C09980FA9A1EB0807FF1D00B1DB
:100F40000120411901EBEA70A1693844081A401EDA
:100F5000A0612078C00602D42046FFF7E6FA09987F
:100F600028B1D4E901219047206A401C20622078F2
:100F7000C00622D52046FFF7D8FA1EE0002E04DB7B
:100F8000B34502DD01A8805D00E03020D4E90121F5
:100F90009047206A401C2062761CAAF101005FEA9B
:100FA000000A0AD100F020FAC0680168405CD4E968
:100FB00001219047206A401C2062281EA5F10105EE
:100FC000DCDC07E0D4E9012118F8010B9047206A26
:100FD000401C2062381EA7F10107F3DC2046FFF712
:100FE000BAFA032011B041E62DE9F04F04460D4650
:100FF000D21D22F0070089B0D0E900974846394653
:1010000004F0D0FA0246F80F01D02D2307E0206843
:10101000810701D52B2302E0202101EAC0038DF8CE
:1010200020300BB1012000E00020032A824601D0CD
:10103000072A04DB2946204600F0DAF93FE1207850
:10104000800601D40D2500E0E569C7F30A560D2D91
:1010500049DA00214FEA175B08464FF00000002FE5
:1010600000F4400007DA00EB80004FF4400100EB91
:10107000D07001EA60008115012901DD4FF0FF31D8
:1010800000224FEA850CBCF1180F06D31346ACF1D1
:1010900018004FF08052C24003E04FF4801323FA4F
:1010A0000CF30CF10C0CBCF1200F04D3ACF1200CB0
:1010B00009FA0CF001E007FA0CF000294FF00048A3
:1010C00001DD18B90FE00ED140450CD319EB020930
:1010D0005F4121B9404502D19F4329EA0209BBEB98
:1010E000175F00D0761C2088000502D57B48784425
:1010F00002E07A487844193808AA302302F80A3006
:10110000037C0AF10101002E0AF1020A53546A46D7
:1011100002DC4FF0300101E04FF031014FF00108E7
:101120008DF8001002D0A6F2FF3603E059EA47011D
:1011300000D06B4E002D02DC2178090704D54FF05A
:1011400002082E218DF80110C44600210BE0C7F3E0
:1011500003433F01C35C491C6D1E02F8083005299A
:1011600008F1010801DA002DF1DC00210CE000EBB0
:101170001973491C1B786D1E082902F808304FEAC4
:10118000091908F1010801DA002DF0DC21688B064D
:1011900002D516E0A8F10108E04505DD02EB0803E1
:1011A00013F8013C302BF5D0B8F1000F09DD02EB4C
:1011B000080313F8013C2E2B03D1090701D4A8F131
:1011C0000108002D05DD3E2102F808106D1E08F112
:1011D0000108407C002E02F8080008F1010804DA3A
:1011E0002D20764202F8080002E02B2002F80800C9
:1011F0000A214FF47A70864208F101080BDB96FB56
:10120000F0F3303302F8083096FBF0F308F10108F0
:1012100000FB136601E0642E0CDB642096FBF0F308
:10122000303302F8083096FBF0F308F1010800FBB8
:10123000136601E00A2E06DB96FBF1F0303002F86F
:10124000080008F1010896FBF1F001FB1060303056
:1012500002F80800A16908F1010808EB050202EB99
:101260000A00081AA0612078C00602D42046FFF7C1
:101270005CF9216A08AE01EB0A00206204E0D4E9BF
:10128000012116F8010B9047BAF1010AF7D2207834
:10129000C00602D52046FFF748F96E4609E016F869
:1012A000010B3E280FD0D4E901219047206A401C51
:1012B0002062B8F10108F2D22046FFF74CF909B0DC
:1012C0000320BDE8F08F206A2844206203E0D4E9BF
:1012D0000121302090476D1EEBD3F8E7AE460000A9
:1012E00002FCFFFF10B5436913B1AFF3008001E0CA
:1012F000FFF754F9012010BD127800F124010A70A3
:1013000000224A700122EDE711684FF0FF32E9E751
:1013100010B5436913B1AFF3008001E0FFF7D6F9D0
:10132000012010BD128800F1240182840022C284B1
:101330000122EDE711684FF0FF32E9E72DE9F041B6
:1013400016460C46054600F047F8036893F801017D
:10135000012807D0FF2C12D8185D80B101202C7015
:10136000BDE8F081D3F807013246214603F20713A6
:10137000C7182846BC46BDE8F041002360474FF03F
:10138000FF30EDE700487047300000207546FFF75A
:10139000F9FFAE4605006946534620F00700854632
:1013A00018B020B5FEF7BAFFBDE820404FF00006A8
:1013B0004FF000074FF000084FF0000BAC46ACE8D0
:1013C000C009ACE8C009ACE8C009ACE8C00921F02C
:1013D00007018D467047000010B500F005F8001DAC
:1013E00010BD00BF2D420000004870475000002093
:1013F0002DE9F0411F46044603260168072A01F43F
:10140000006004DB08B116A505E016A503E008B1ED
:1014100015A500E015A521F010002060A069C01EF0
:10142000A0610FB1401EA0612046FFF77EF84FB1CA
:10143000D4E9012138469047206A401C2062C01C34
:10144000206206E0206AFAE7D4E9012115F8010BD1
:101450009047761EF8D22046FFF77DF8BDE8F08170
:101460004E414E006E616E00494E4600696E660048
:101470002DE9F047814616468AB0354878440DC8B4
:101480008DE80D0032487844801C03AC0DC884E818
:101490000D0041F69B300844372190FBF1F290FBA0
:1014A000F1F5A5F1800501FB12041B3C02D5644255
:1014B000012000E00020DFF898A080460027FA44D1
:1014C000AAF1BE0A0EE0E0070AD03246684607EBF2
:1014D000470101230AEB810103F02DFF8DE807008E
:1014E00064107F1C002CEED1194F7F44AE3F19E0F1
:1014F000E80715D007EB04100DF1180A90E80E006C
:101500008AE80E00C068F04201D19819089032466E
:10151000012306A903A803F00EFF03AB83E807002D
:101520006D10641C002DE3D14FF001033246694673
:10153000B8F1000F03A802D003F0E8FE01E003F0C9
:10154000FAFEC9E90001C9F808200AB0BDE8F08731
:10155000B043000010B50446AFF300802046BDE85C
:101560001040FEF7C6BE000001491820ABBEFEE7E2
:10157000260002007047000080B582B002F034FD02
:1015800041F20850C2F20000007801280FD141F268
:101590000450C2F20000006804F056F841EC100B51
:1015A0001BA30020002108228DED000B03E014A3F3
:1015B00000200021082202F0CBFD40F27060C2F250
:1015C0000000007801280FD140F26C60C2F20000E8
:1015D000006804F039F841EC100B14A3002010212E
:1015E00008228DED000B03E00CA30020102108223F
:1015F00002F0AEFD02B0BDE8804003F039B800BF94
:101600004D6F746F723A20202D2D2E2D000000009A
:101610004D6F746F723A25372E31660052616461E6
:10162000723A20202D2D2E2D0000000052616461A1
:10163000723A25372E31660040F2A04140F2A142B5
:10164000C2F20001C2F2000208781278904204BF90
:1016500000207047087840F29842C2F20002105C05
:101660000A78013202F007020A70704740F2A34084
:10167000C2F200000021017040F2A240C2F200005C
:10168000017040F2A140C2F20000017040F2A0409F
:10169000C2F200000170704740F2A341C2F20001A3
:1016A0000A78022A0ED0012A27D1FF2845D000F05F
:1016B000FE02AA2A29D140F2A242C2F20002107010
:1016C000022023E0FF281ED0FE2814D140F2A240C1
:1016D00040F2A142C2F20000C2F2000290F800C043
:1016E000137840F2A040C2F200000133007803F00A
:1016F000070383420DD1002018E0FF2812BF00200D
:10170000012008707047012010E0002008700120BF
:10171000704780B592F800E040F29840C2F20000B5
:1017200000F80EC000201370BDE88040087040F241
:10173000A240C2F2000000210170012070470000A9
:10174000FEE7000070470000B0B540F2AC45C2F2C1
:1017500000052968044649B900F0DEFA4DF68361B8
:10176000C4F21B31A0FB0101890C29604EF2180064
:10177000CEF2000050F804CC01FB04F20168002313
:1017800008E00B441B1B8C4228BF63449342214654
:1017900028BFB0BD04688C42F3D104688C42F0D1FC
:1017A00004688C42EDD104688C42F3D0E9E7000074
:1017B00072B600BFFEE7000070B5866D044600F00B
:1017C00039F994F83510022925D105462068216C95
:1017D000026822F016020260426922F08002426131
:1017E00009B9A16C19B1016821F008010160016813
:1017F00021F00101016000BF20680068C0070ED021
:1018000000F018F9401B0628F6D32020606503205D
:1018100084F835000CE080206065012008E0E06D70
:101820003F2101FA00F0B060012084F8350000206B
:10183000002184F8341070BD90F83510022909D1C8
:10184000052180F835100068016821F00101016070
:10185000002070478021416501207047406D70472E
:10186000B0B5044600F0E6F8054640F22700C2F2A3
:1018700000000078611C18BF044400BF00F0DAF8D3
:10188000401BA042FAD3B0BD2DE9F04F83B000F168
:10189000200200F13E4741F60045009207F1FF7734
:1018A000C4F2020508224FEAB726A84208BF072261
:1018B00000254FF000084FF00009072E38BF4FEA0F
:1018C000B72201920AE000BF09F1010908F10208FC
:1018D000B9F1100F05F1040500F0A2800F68012294
:1018E00002FA09FE17EA0E0AEED0D1F804C003226C
:1018F0000CF003077E1E02FA08F4012E6FEA040BB7
:1019000012D88468CE6804EA0B0406FA08F6344359
:101910008460446824EA0E06CCF3001404FA09F447
:101920002643466004E000BF032F01D103271EE0D9
:10193000C6688C6806EA0B0604FA08F42643022FF0
:10194000C66014D16FF00302009E02EA590756F8F0
:1019500007C005F01C040F220B69A2402CEA02020A
:10196000A3401A43F251D1F804C00CF003070268F7
:1019700007FA08F302EA0B021A431CF4403F026024
:10198000A2D0002243F644030292C4F202031A6872
:1019900043F6004442F480421A601A68C4F201041B
:1019A00002F480420292029A29F003024FF6084C98
:1019B0002244CFF6FF7C52F80C3005F00C070F26BE
:1019C000BE40B343019E06FA07F73B4342F80C3092
:1019D000A2684B6842EA0A0743F60C4CDE0258BF85
:1019E00022EA0A07A760C4F2010CDCF800209E027C
:1019F00042EA0A0758BF22EA0A07CCF80070626878
:101A00009E0342EA0A0758BF22EA0A076760226873
:101A1000DB0342EA0A0758BF22EA0A07276053E7B6
:101A200003B0BDE8F08F0000002A08BF09048161FF
:101A30007047000041F21850C2F200000068704781
:101A400040F2270041F21851C2F20000C2F2000138
:101A500000780A68104408607047000080B543F6BB
:101A60000040C4F20200016841F4007101600168A5
:101A700041F480610160016841F4807101600320DC
:101A800000F08AF80F2000F005F800F02BF8002095
:101A900080BD0000B0B540F22702C2F2000240F261
:101AA00000011278C2F200014FF47A730968B3FBA7
:101AB000F2F20446B1FBF2F1084600F049FB0F2CAC
:101AC0004FF001050CD858B94FF0FF3021460022E5
:101AD000002500F035F840F22800C2F20000046052
:101AE0002846B0BD82B0002043F640010190C4F208
:101AF00002014A6842F480424A604A6802F4804225
:101B00000192019A0090086840F0805008600868CF
:101B100000F080500090009802B07047002848BF45
:101B2000704700F01F01012202FA01F11C2202EAB3
:101B3000D0004EF20012CEF2000281507047000039
:101B400010B54EF60C5CCEF2000CDCF80030C3F39E
:101B5000022E8EF00704042C28BF0424BEF10303D8
:101B60004FF0FF3E0EFA04F438BF0023A143994022
:101B70000EFA03F39A43114300F00F0200F16043A1
:101B80000901043A03F564436244002848BF02F1A6
:101B90000C03197010BD00004EF60C51CEF200017E
:101BA0000A684FF6FF031A4060F30A2242F0806091
:101BB00040F0FD7008607047002804BF01207047A6
:101BC0002DE9F04143F60808C4F202080446D8F8AB
:101BD000F8030D4600F00700814207D988F8F85352
:101BE000D8F8F80300F00700A84276D120688107F2
:101BF00017D5410705D5D8F8001041F4E051C8F8D1
:101C00000010010705D5D8F8001041F46041C8F86C
:101C10000010D8F80010A26821F0F0011143C8F8B4
:101C20000010C0073FD1D8F8F80300F00700854244
:101C300007D288F8F853D8F8F80300F00700A84254
:101C40004BD12068410707D5D8F80010E26821F48D
:101C5000E0511143C8F80010000708D5D8F800007B
:101C6000216920F4604040EAC100C8F8000000F09B
:101C700081F8D8F8001045F64802C1F30311C0F608
:101C80000002515C40F2000220FA01F140F228000B
:101C9000C2F200000068C2F200021160FFF7FAFE13
:101CA0000020BDE8F0816068811E022907D258F843
:101CB000081C89015CBF0120BDE8F08110E001280B
:101CC00007D158F8081C89035CBF0120BDE8F081EA
:101CD00006E058F8081C890702D40120BDE8F0810D
:101CE000D8F8001021F003010843C8F80000FFF7FE
:101CF000A1FE064641F28837D8F80000616800F07E
:101D00000C00B0EB810F8ED0FFF794FE801BB84221
:101D1000F2D90320BDE8F08140F20000C2F20000D9
:101D20000068704740F2000043F60801C2F200006C
:101D3000C4F202010068096845F65802C1F3822125
:101D4000C0F60002515CC8407047000040F200003D
:101D500043F60801C2F20000C4F2020100680968FB
:101D600045F65802C1F34231C0F60002515CC8404A
:101D70007047000010B543F60404C4F20204616821
:101D8000C1F3810142F20040C0F2F400DFE801F04B
:101D90000203080210BD41F20020C0F27A0010BD1B
:101DA000216801F03F02216823684902C3F38811CA
:101DB00005D4A1FB00010023FEF7C2FA06E041F2C0
:101DC0000020C0F27A004843B0FBF2F02168022202
:101DD000C1F3014102EB4101B0FBF1F010BD000085
:101DE000002804BF012070472DE9F04182B004466D
:101DF000007843F60006C007C4F202060BD0B068B4
:101E000000F00C00042876D13068800303D56068A8
:101E1000002800F04F812078800719D5B06810F0B5
:101E20000C0F07D0B06800F00C0008287DD1706856
:101E300040027AD43068800703D5E068012840F07A
:101E400039813068216920F0F80040EAC100306033
:101E50002078000713D42078400726D4A569002DE8
:101E600000F02481B06800F00C00082840F0968053
:101E7000012D40F0F880012002B0BDE8F0816069DA
:101E8000002877D00020C4F247200121C0F8801E2E
:101E9000FFF7D0FD054600BF706F8007DBD4FFF76A
:101EA000C9FD401B0228F7D9D9E0306C5FEAC008B1
:101EB0000AD400200190306C40F080503064306CC7
:101EC00000F080500190019847F20007C4F200072B
:101ED0003868C00540D4386840F480703860FFF737
:101EE000A9FD05463868C00536D4FFF7A3FD401BA1
:101EF0000228F7D9B3E0B06800F00C00082803D13D
:101F0000706840023FF580AF61683068B1F5803F8E
:101F100007D0B1F5A02F40F08C8040F480203060D5
:101F2000306840F4803030608CE0E068002840F297
:101F30000000C4F2472054D001210160FFF77AFD70
:101F4000054600BF306880073FF57BAFFFF772FDA5
:101F5000401B0228F6D982E0A168306F012905D024
:101F600005294FD140F004003067306F40F0010088
:101F7000306750E00020C4F247200021C0F8801EE6
:101F8000FFF758FD054600BF706F80077FF563AF10
:101F9000FFF750FD401B0228F6D960E00027C4F28D
:101FA000472700203866FFF745FD022D05460DD175
:101FB0003068800140F18280FFF73CFD401B022821
:101FC0004FF00300F4D902B0BDE8F0813068800121
:101FD0006CD5FFF72FFD401B02284FF00300F5D909
:101FE000F1E700210160FFF725FD05463068800715
:101FF0007FF52EAFFFF71EFD401B02284FF00300B8
:10200000F4D9E0E720F001003067306F002920F0BC
:102010000400306773D0FFF70DFD054641F28837A5
:10202000306F80077BD4FFF705FD401BB842F7D91E
:1020300015E020F4803030603068002920F48020E2
:10204000306075D0FFF7F6FC054600BF30688003AE
:102050003FF5E1AEFFF7EEFC401B6428F6D9032004
:1020600002B0BDE8F0817068E16900F480028A4244
:1020700020D1216A00F03F028A421BD147F6C0718D
:10208000626A0140B1EB821F14D1A16A4FF6FF735F
:10209000C903994300F44032A1F580318A4209D145
:1020A000E16A00F07060B0EB016F03D1002002B074
:1020B000BDE8F081012002B0BDE8F08104F11C050B
:1020C0002FCD084340EA8210D9034FF6FF729143A7
:1020D000A1F5803140EA0560084370600120386650
:1020E000FFF7A8FC044600BF30688001DED4FFF78C
:1020F000A1FC001B02284FF00300F5D963E7FFF7AE
:1021000099FC054641F28837306F800707D5FFF705
:1021100091FC401BB8424FF00300F5D953E7B8F1EA
:10212000000F3FF59BAE306C20F08050306495E698
:10213000FFF780FC054600BF306880037FF56BAE7B
:10214000FFF778FC401B64284FF00300F4D93AE70E
:10215000411E0020B0EB116F1CBF012070474EF2F2
:102160001002CEF2000251604EF62351CEF2000171
:10217000F0230B70072190601160704770470000DA
:10218000704700007047000070B504460068C568DD
:102190000669B10716D515F0020113D06FF00201E0
:1021A0000161012121778069800703D02046FFF774
:1021B000E9FF05E0204600F08DF8204600F08CF89D
:1021C00000202077700718D515F0040015D020687E
:1021D0006FF00401016102212177806910F4407FD2
:1021E00003D02046FFF7CEFF05E0204600F072F84E
:1021F000204600F071F800202077300717D515F041
:10220000080014D020686FF00801016104212177D3
:10221000C069800703D02046FFF7B4FF05E02046E1
:1022200000F058F8204600F057F800202077F0061C
:1022300018D515F0100015D020686FF0100101615D
:1022400008212177C06910F4407F03D02046FFF7B2
:1022500099FF05E0204600F03DF8204600F03CF8EC
:1022600000202077F00718BF15F0010002D13006DA
:1022700009D412E020686FF001010161204600F0EE
:102280002DF8300609D515F0800006D020686FF0D3
:10229000800101612046FFF771FF700609D515F036
:1022A000400006D020686FF040010161204600F038
:1022B00017F8B00658BF70BD15F0200008D021688F
:1022C0006FF0200220460A61BDE87040FFF758BF5A
:1022D00070BD0000704700007047000070470000AC
:1022E000704700007047000010B50446206850E8B1
:1022F000030F216820F4907041E80302BAB320680C
:1023000050E8030F216820F4907041E8030272B393
:10231000206850E8030F216820F4907041E8030220
:102320002AB3206850E8030F216820F4907041E838
:102330000302002ADAD11AE0206850E8050F21686C
:1023400020F0010041E80502DAB1206850E8050FED
:10235000216820F0010041E8050292B1206850E8B0
:10236000050F216820F0010041E805024AB120680C
:1023700050E8050F216820F0010041E80502002A1D
:10238000DAD1206B012824D1206850E8030F21689E
:1023900020F0100041E80302DAB1206850E8030F92
:1023A000216820F0100041E8030292B1206850E853
:1023B000030F216820F0100041E803024AB12068B1
:1023C00050E8030F216820F0100041E80302002AC2
:1023D000DAD120684069400635D500BF206850E852
:1023E000050F216820F0400041E80502DAB12068BD
:1023F00050E8050F216820F0400041E8050292B145
:10240000206850E8050F216820F0400041E80502EF
:102410004AB1206850E8050F216820F0400041E8EB
:102420000502002ADAD1E06B68B100210165FFF7EF
:10243000C3F940B1E06BFFF711FA202803D1102057
:102440006064032010BD00202021E08584F8421044
:10245000206310BD006844F20041C4F200018842CC
:1024600008BF01F005BC41F20041C4F201018842FD
:1024700008D041F20001C4F20101884218BF704740
:1024800000F0DABF10B582B040F21864C2F2000466
:102490002046FFF729FF0020019021680A68019279
:1024A0004968019101996064FFF7F6F841F2115112
:1024B000C2F200012046012202B0BDE8104000F047
:1024C0002FBC0000B0B582B001680A68CC684B69C7
:1024D00002F02F05202D04F0200505D125B102B012
:1024E000BDE8B04002F058BA5FEA027C1EBF03F0BC
:1024F000010E04F4907313EB0E0340D1036BD50669
:1025000018D5012B16D114F0100313D0002201921C
:102510000A6801924A680192019A4969490649D4B8
:10252000818DC28DC38D002B18BF914240F0F9817F
:1025300002B0B0BD13062CD514F0800329D090F85A
:102540004120212AF4D18268B2F5805F03D102696B
:10255000002A00F06982026A531C036212784A6002
:10256000C28C013A1304C284E2D1C86820F0800012
:10257000C860C86840F04000C86002B0B0BDD30772
:1025800018BF14F4807340F0D780530700F1DA804D
:10259000DFE05206CCD514F04002C9D0CA6822F060
:1025A0004002CA60202180F8411002B0BDE8B0406E
:1025B00000F094BCC26B11684B68858D99B20029FC
:1025C00000F0B080A94280F0AD80C385D169B1F53B
:1025D000807F00F0A080016851E8031F026821F4A9
:1025E000807142E80313DBB1016851E8031F026800
:1025F00021F4807142E8031393B1016851E8031F8D
:10260000026821F4807142E803134BB1016851E87C
:10261000031F026821F4807142E80313002BDAD112
:10262000016851E8051F026821F0010142E8051325
:10263000BBB3016851E8051F026821F0010142E8BF
:10264000051373B3016851E8051F026821F0010109
:1026500042E805132BB3016851E8051F026821F019
:10266000010142E80513002BDAD11AE0016851E8B4
:10267000051F026821F0400142E80513DBB1016843
:1026800051E8051F026821F0400142E8051393B1AB
:10269000016851E8051F026821F0400142E8051376
:1026A0004BB1016851E8051F026821F0400142E882
:1026B0000513002BDAD1202180F84210002101639C
:1026C000016851E8031F026821F0100142E803137A
:1026D000DBB1016851E8031F026821F0100142E8F4
:1026E000031393B1016851E8031F026821F0100140
:1026F00042E803134BB1016851E8031F026821F05F
:10270000100142E80313002BDAD1C16B04460846DE
:10271000FFF752F8204602214163818DC28D891A4C
:1027200089B277E18D427FF403AFD269B2F5807F41
:102730007FF4FEAE02226CE1436C43F0010343647C
:10274000530706D5BEF1000F03D0436C43F00203DC
:102750004364930706D5BEF1000F03D0436C43F0EA
:1027600004034364BCF1000F06D55EEA050303D001
:10277000436C43F008034364436C002B3FF4D8AE32
:10278000920605D525B1044602F006F921682046D7
:102790004969426C01F0400102F00802891800F01A
:1027A000B98000BF016851E8031F026821F49071ED
:1027B00042E80313BBB3016851E8031F026821F428
:1027C000907142E8031373B3016851E8031F026874
:1027D00021F4907142E803132BB3016851E8031F01
:1027E000026821F4907142E80313002BDAD11AE059
:1027F000016851E8051F026821F0010142E8051354
:10280000DBB1016851E8051F026821F0010142E8CF
:10281000051393B1016851E8051F026821F0010119
:1028200042E805134BB1016851E8051F026821F029
:10283000010142E80513002BDAD1016B012924D1F3
:10284000016851E8031F026821F0100142E80313F8
:10285000DBB1016851E8031F026821F0100142E872
:10286000031393B1016851E8031F026821F01001BE
:1028700042E803134BB1016851E8031F026821F0DD
:10288000100142E80313002BDAD1202180F8421016
:102890000021016301684969490640F1C08001686F
:1028A00051E8051F026821F0400142E80513DBB141
:1028B000016851E8051F026821F0400142E8051354
:1028C00093B1016851E8051F026821F0400142E818
:1028D00005134BB1016851E8051F026821F0400162
:1028E00042E80513002BDAD1C16B002900F0978074
:1028F00044F68D12C0F60002044608460A65FEF74B
:102900009BFF00283FF414AEE06B016D02B0BDE800
:10291000B04008470446FFF79DFD0020606402B008
:10292000B0BD891A026852E8032F036822F490723E
:1029300043E80325BDB3026852E8032F036822F47D
:10294000907243E8032575B3026852E8032F0368C9
:1029500022F4907243E803252DB3026852E8032F56
:10296000036822F4907243E80325002DDAD11AE0BF
:10297000026852E8052F036822F0010243E80525AA
:10298000DDB1026852E8052F036822F0010243E836
:10299000052595B1026852E8052F036822F001026F
:1029A00043E805254DB1026852E8052F036822F07F
:1029B000010243E80525002DDAD1202280F84220CB
:1029C00000220263026852E8032F036822F010021B
:1029D00043E80325DDB1026852E8032F036822F0C3
:1029E000100243E8032595B1026852E8032F0368FB
:1029F00022F0100243E803254DB1026852E8032F8C
:102A0000036822F0100243E80325002DDAD10222E8
:102A100089B2426302B0BDE8B040FFF763BC02B0C8
:102A2000BDE8B040FFF716BD026A32F8023B6FF313
:102A30005F234B60026293E5002804BF01207047CA
:102A400010B5044690F8410028B9002084F84000F1
:102A5000204600F021F8242084F841002068C16855
:102A600021F40051C160204602F014F82068016989
:102A700021F490410161416921F02A014161C1685D
:102A800041F40051C16000202021606484F84110AD
:102A900084F84210606310BD2DE9F04387B00068F0
:102AA00044F6FF71C4F2000188424FF00001069124
:102AB000CDE90411CDE902115DDD41F20041C4F21E
:102AC0000101884200F0948041F20001C4F201014A
:102AD000884200F0BB8045F20001C4F20001884248
:102AE00040F01A81002643F630000196C4F202003D
:102AF000016940F6000441F4801101610169C4F2EA
:102B0000020401F48011019101990196016802AD5E
:102B100041F00401016001684FF0020801F0040176
:102B200001910199019601684FF0030941F00801F4
:102B300001600068082700F00800019001984FF438
:102B40008050029020462946CDE90386CDF81490A6
:102B50000697FEF799FE0420CDE9020804F580608F
:102B60002946CDE904690697FEF78EFE352000213F
:102B700000223524CBE044F20041C4F20001884237
:102B800000F0958044F60001C4F20001884240F054
:102B9000C380002043F630010190C4F202010A69AB
:102BA00042F480220A610A6902F480220192019AA9
:102BB00001900A6842F004020A60096801F0040109
:102BC000019101994FF4406102910221CDE9031076
:102BD000032005900720069040F60000C4F2020092
:102BE00002A9FEF751FE27200221002227248EE0B1
:102BF000002043F630010190C4F202014A6942F01C
:102C000020024A614A6902F020020192019A019071
:102C10000A6842F004020A60096801F004010191A7
:102C20000199C02102910221CDE9031003200590F2
:102C30000820069040F60000C4F2020002A9FEF748
:102C400023FE472000210022472460E0002043F6B5
:102C500030010190C4F202014A6942F010024A6157
:102C60004A6902F010020192019A01900A6842F04A
:102C700001020A60096801F00101019101994FF414
:102C8000C06102910221CDE90310032005900720C5
:102C9000069040F60000C4F20200A0F5006002A910
:102CA000FEF7F2FD25200021002225242FE0002040
:102CB00043F630010190C4F202010A6942F4003285
:102CC0000A610A6902F400320192019A01900868CF
:102CD00040F001000860086802A900F001000190BE
:102CE00001980C2002900220039001200490032000
:102CF00005900720069040F60000C4F20200A0F5FF
:102D00000060FEF7C1FD2620002100222624FEF7E8
:102D100017FF2046FEF702FF07B0BDE8F083000072
:102D200090F84230202B07D100294FF0010318BF43
:102D3000002A04D118467047022318467047002322
:102D40000363816222218285C285436480F8421038
:102D50000169006819B1C16841F48071C1604169BD
:102D600041F001014161C16841F02001C160184694
:102D700070470000006840F6FF71C4F2010188420C
:102D800012DC44F20041C4F2000188421BD045F23B
:102D90000001C4F20001884229D141F21050C2F270
:102DA0000000007800F09EB841F20041C4F2010139
:102DB00088420AD041F20001C4F20101884218BFE2
:102DC000704700F05BBB00F0D5BE10B541F2115466
:102DD000C2F200042078FEF75FFC40F21860C2F2F5
:102DE000000021460122BDE81040FFF799BF70475F
:102DF0002DE9F04381B0044690F84100202809D124
:102E0000894600294FF0010018BF002A06D101B001
:102E1000BDE8F083022001B0BDE8F08300206064CB
:102E200021201D4684F841001646FEF703FEA684C5
:102E3000E684A1680646B1F5805F02D120690028CA
:102E400048D0C8464FF00009E18C206821B36F1CC0
:102E50000AE0B8F1000F18D018F8011B4160E18CAE
:102E60000139E184E18CB9B101680906F1D4002F80
:102E7000FAD0FEF7DFFD01464FF0030025B3891BB2
:102E8000A94221D82068C168EEE739F8021B4FF04B
:102E900000086FF35F21E1E70168490613D46F1C56
:102EA00003E000BF016849060DD4002FFAD0FEF7F9
:102EB000C1FD01464FF0030035B1891BA94203D87B
:102EC0002068C168EEE70020202184F8411001B09D
:102ED000BDE8F0834FF00008B6E70000704700003F
:102EE000FEE7000040F26B6CC2F2000C9CF8003070
:102EF000012B0CD0BBB9552859D101208CF800000A
:102F000040F26060C2F20000552101704FE053288A
:102F10004AD102208CF8000040F26060C2F200004A
:102F20005321417043E05A1CD1B28CF8002040F28A
:102F30006062C2F200020B29D05438D310B592F867
:102F400000E051789378D07871441944084411799D
:102F50005379084492F806E0C118D3797144107A85
:102F60001944547A08442044917AC0B288424FF000
:102F700000008CF8000014D14EEA032000B200EEED
:102F8000100A9FED101AB8EEC00A9FED0F2A20EE2E
:102F9000010A41F21C5020EE020AC2F2000080ED4C
:102FA000000ABDE8104002E000208CF8000040F26A
:102FB000D05041F21051C2F20000C2F200010122D1
:102FC000FFF7AEBE000000380000344340F2B260AC
:102FD000C2F200000023037040F2B860C2F20000A9
:102FE000A0F80837A0F8123E41F2D440C2F2000027
:102FF000037040F20500C2F20000FF21017040F2B0
:103000000400C2F20000017040F2B360C2F200009E
:10301000037040F2A840C2F20000037040F2AA40E0
:10302000C2F20000038041F2CC40C2F200000380F3
:1030300041F2D040C2F20000036040F2746C40F2F2
:10304000F84040F2B661C2F2000CC2F20000C2F2D7
:1030500000010122CCF80030FFF762BE40F205010A
:1030600072B6C2F200010878FF284DD02DE9F04F6A
:1030700088B0FF2240F204050A70C2F2000540F257
:10308000B8612870C2F2000140F20A7262B610FB09
:103090000212B2F808070328C0F0A3810590013896
:1030A0000026042347F2603C05E000BF0599043385
:1030B000A9422E462AD0841B06F1010518BF2C46D2
:1030C000B04203D11188A1EB0C0100E0D15AD7180E
:1030D00037F8047CC91B89B2C929E7D3B1F57A7FD7
:1030E0000AD802EB860102EB840749887F88C91B56
:1030F00048BF49422829D9D9A9B2059D1746B1FB35
:10310000F5F303FB151E05E062B67047059D1746F3
:103110004FF0000E80B2049025F0010001904FF0B6
:10312000000C00224FF0000B002300264FF0000A95
:10313000002428460397CDF808E019E0B6B21FFA3C
:103140008BF1DDF81CA0B14284BFA2460E464FF0C1
:1031500000044FF0000B4A46069888BF03460198CA
:1031600005F1010C8445DDF808E0059800F0A08029
:103170000EEB0C08B8FBF0F1CDF81CA001FB1081A0
:103180000BF1010B07EB8101B1F802A00CF1010575
:1031900004EB0A09049C644510D1B6B21FFA8BF106
:1031A000079CB14288BF4C464FF000094FF0000B1E
:1031B000079484BF0E46134606951AE0009308F163
:1031C0000103B3FBF0F4069204FB1034098847F2C4
:1031D0006032804528BF891A37F82420834247F29D
:1031E000603328BFD21A511A89B2C92938D2039F35
:1031F000009B05EB0E0ABAFBF0F10BF1010B01FB92
:1032000010A1049807EB8101B1F802E0854209EBB7
:103210000E040CF1020991D0059808F102029C46B7
:10322000B2FBF0F3098803FB1028CDF80090A94603
:10323000824547F2603528BF491B37F82830824263
:1032400028BF5B1B591A89B2C9291BD2039FDDF81D
:103250001CA0069A4D46DDF8009063467FE700BF4C
:10326000039F009B069AB1F57A7F96D807EB8401FD
:103270004988BAEB010148BF4942039F29298CD2F2
:10328000B7E700BF039F4D46DDF80090B1F57A7FA8
:1032900063463FF653AF07EB88014988BEEB010157
:1032A00048BF49422929BFF449AFDDE9062A56E75C
:1032B000C10705D140F20405C2F20005B94644E059
:1032C0000EEB09010692B1FBF0F2984602FB1012D8
:1032D000039B5F4603EB820B04984A46DDF80C9093
:1032E000BBF802C040F204059042C2F200050FD1C3
:1032F000791CB6B289B2B14284BF04EB0C0A0E4607
:103300004346069888BF0346DDF808E005981CE0B0
:1033100005984A1CB2FBF0F3079403FB102EBBF890
:10332000003047F26034814228BF1B1B39F82E1051
:10333000824228BF091BC91A89B2C92968D2DDF89F
:103340000C90DDF808E005984346B4B2032C48D34E
:10335000611E03EB51011EFA81F2B2FBF0F38242CF
:1033600003FB102348F6A04C39F8233028BF6344F0
:10337000E2070DD101311EFA81F1B1FBF0F2814279
:1033800002FB101239F8222028BF6244D1184B08E2
:103390004DF20921C0F20101A3FB011202FB1C3115
:1033A0009FED241A00EE101AB8EE400A80EE010AD2
:1033B00040F2A441C2F20001BAFBF4F081ED000A30
:1033C00040F2AA41C2F20001088041F2CC40C2F2B0
:1033D0000000068040F2A840C2F200000121017006
:1033E0000FE040F2A840C2F200000021017040F25C
:1033F000AA40C2F20000018041F2CC40C2F20000BB
:103400000180FF2072B6287062B608B0BDE8F08F68
:10341000DDF80C90079CB1F57A7F3FF669AF09EBB8
:103420008E014988BCEB010148BF49422929BFF4FC
:103430005FAF86E70000C84281B040F2B260C2F2DE
:1034400000000021017040F27460C2F200000268C6
:103450000132026040F2F8400091C2F200000168BF
:103460000A680092496801220091009940F2B66111
:10347000C2F2000101B0FFF753BC00002DE9F04F8C
:1034800083B040F2B26C40F2B660C2F2000CC2F2FD
:1034900000009CF800200078022A1BD0012A0BD0E3
:1034A0001ABBA52840F05A8240F27860C2F20000B0
:1034B000A521017001204FE2A52800F04F825A2873
:1034C00040F0498240F27860C2F200005A21417017
:1034D000022041E23A2840F03E8240F27860C2F297
:1034E00000003A218170032036E2511CCBB240F239
:1034F000786EC2F2000E3A2B8CF800100EF8020023
:10350000C0F02C82002000231EF800700EEB000299
:103510003B4457789678D5783B44147933442B4410
:10352000577923443B449779D6793B44177A3344FF
:10353000567A3B44977A3344D67A3B44177B3344DC
:10354000567B3B44977B3344D67B3B44177C3344C8
:10355000567C3B44927C3344133039281344D3D1F6
:103560009EF83900DAB2824240F0E581BEF80500EB
:1035700048F6A04600BA020C47F26037B242BEF8E5
:10358000372007EB104338BF030C10BA020C07EBCF
:103590001047B24238BF070CB8B21FFA83F8B0EB3D
:1035A000080038BF30440290BEF8070040F2B3690B
:1035B00040F2B46400BA41F26F7741F2D44AC2F2E9
:1035C0000009C2F20004000CB845C2F2000A2FD86C
:1035D00099F8007067B3278847F23156B74227D36E
:1035E00040F20501C2F200019AF800700E78FF2E39
:1035F00011D140F20401C2F200010E7887F00107F8
:10360000BE4208D09AF8006040F20501C2F2000103
:103610000E708AF800709AF8007040F2B86140F2BB
:103620000A76C2F2000117FB06170026A7F8086702
:10363000A0F259274FF69B71BFB201228F4223801F
:1036400089F8002016D39AF8007040F2B86140F271
:103650000A76C2F2000117FB0617B7F8086775086B
:10366000E02D07D807EB86056880701C27F8263008
:10367000A7F8080702984FF0070C00EB4001400044
:103680004FF0000B0191009006E000BF0BF1090B19
:10369000BBF12D0F00F05481029848F68901604477
:1036A000C8F68801A0FB010548F65B2108EBD500B0
:1036B000C1F62051A0FB01570EEB0B063F0B48F65D
:1036C000A041758907FB110798B247F23151884232
:1036D0002BD341F26F70874227D840F20501C2F226
:1036E00000019AF800000B78FF2B11D140F2040181
:1036F000C2F200010B7880F00100834208D09AF8F2
:10370000003040F20501C2F200010B708AF800009F
:103710009AF8000040F2B861C2F2000140F20A7269
:1037200010FB02100021A0F8081728BA030CA3F21E
:10373000592080B24FF69B712246884249464FF08D
:103740000100278089F8000018D39AF8000040F2A1
:10375000B864C2F2000440F20A7510FB0545B5F8E2
:1037600008974FEA5900E02808D805EB8900438004
:1037700009F1010025F82970A5F80807009848F616
:1037800089036044C8F68803A0FB030308EBD30059
:1037900048F65B23C1F62053A0FB03352D0B48F6FA
:1037A000A044B6F80D3005FB140547F231508742AE
:1037B000894614462BD341F26F70854227D840F2D8
:1037C0000501C2F200019AF800000F78FF2F11D115
:1037D00040F20401C2F200010F7880F0010087423C
:1037E00008D09AF8007040F20501C2F200010F7093
:1037F0008AF800009AF8000040F2B861C2F20001B5
:1038000040F20A7210FB02100021A0F8081718BA43
:10381000030CA3F2592080B24FF69B7188424FF0FF
:103820000100258089F8000016D39AF8000040F2C4
:10383000B861C2F2000140F20A7210FB0217B7F839
:1038400008074108E02907D807EB800127F8205036
:1038500001304B80A7F80807019848F6A04284443D
:1038600048F68900C8F68800ACFB000108EBD100DF
:1038700048F65B21C1F62051A0FB0113190B368AD3
:1038800001FB120347F2315085422CD341F26F7095
:10389000834228D840F20501C2F200019AF80000E4
:1038A0000978FF2912D140F20401C2F2000109781F
:1038B00080F00100814209D09AF8001040F2050220
:1038C000C2F2000211708AF8000000BF9AF80000EE
:1038D00040F2B861C2F2000140F20A7210FB02101D
:1038E0000021A0F8081730BA050CA5F2592080B2C3
:1038F0004FF69B7188424FF00100238089F8000049
:10390000FFF4C4AE9AF8000040F2B861C2F20001C0
:1039100040F20A7210FB0216B6F808074108E029C7
:103920003FF6B4AE06EB800126F8203001304D8022
:10393000A6F80807AAE640F27461C2F2000107E0A7
:1039400040F2B26C41F2D041C2F2000CC2F200016E
:1039500008680130086000208CF8000040F2F84050
:1039600040F2B661C2F20000C2F20001012203B0CF
:10397000BDE8F04FFFF7D4B92DE9F04786B0002538
:1039800043F630000595CDE90355CDE90155009585
:10399000C4F20200016840F2004441F004010160F9
:1039A0000168C4F2020401F004010091009900953D
:1039B000016804F5806741F0800101600168002220
:1039C00001F08001009100990095016842F2200603
:1039D00041F001010160016801F0010100910099CD
:1039E0000095016841F002010160016801F00201E7
:1039F000009100990095016841F00801016000689C
:103A000042F2200100F00800009000983846FEF7CE
:103A10000BF8204643F630710022FEF705F8A4F5B6
:103A2000806840464FF4184100224FF41849FDF7D2
:103A3000FBFF019601AE4FF0010A38463146CDE951
:103A400002A50495FDF720FF072001A981E82104C4
:103A500038463146FDF718FF0420CDE90105204620
:103A600031460395FDF710FF4FF440600190112798
:103A700020463146CDE902750495FDF705FF43F276
:103A80003000CDE9010A20463146CDE90355FDF766
:103A9000FBFE40463146CDE9019ACDE90355FDF7DD
:103AA000F3FE4FF44070CDE9010702200490204658
:103AB00031460395FDF7E8FE06B0BDE8F08700004B
:103AC00080B540F2F84041F20001C2F20000C4F2B9
:103AD000010100234FF00C0C4FF4613280E80E001E
:103AE000C0E90333C0E905C3C361FEF7A5FF0028A1
:103AF00008BF80BDBDE88040FDF75ABE80B540F2EA
:103B0000405044F20041C2F20000C4F20001002320
:103B10004FF00C0C4FF4E13280E80E00C0E90333A3
:103B2000C0E905C3C361FEF787FF002808BF80BD59
:103B3000BDE88040FDF73CBE80B540F2186041F220
:103B40000041C2F20000C4F2010100234FF00C0C4E
:103B50004FF4165280E80E00C0E90333C0E905C3F4
:103B6000C361FEF769FF002808BF80BDBDE8804043
:103B7000FDF71EBEF0B541F20050C2F20000016830
:103B800041F2E54E01310160C2F2000E9EF80000E4
:103B900041F2E8410828C2F2000108D841F2E442AB
:103BA000C2F2000212780A5401308EF8000009288F
:103BB00051D1087801283ED191F801C00F7A8B7855
:103BC000C87887EA0C070A795F404D7947408C79BD
:103BD0005740CE796F4067407740FFB2012F2AD11E
:103BE00040EA0321280440EA026040EA042041F24E
:103BF000D8438219C2F200030120187083F801C073
:103C0000598041F2D541C2F200015A60087041F278
:103C1000F841C2F200010A6801320A6041F2F4413F
:103C2000C2F200010A6801320A600A68002A08BF6D
:103C3000086000200DE041F2E040C2F2000002689E
:103C400001320260D1F80100D1F80520C1E900027B
:103C500008208EF8000040F2405041F2E441C2F2E8
:103C60000000C2F200010122BDE8F040FFF758B8A1
:103C700010B582B041F2FC40C2F20000016840F28F
:103C800040540131C2F2000401602046FEF72CFBD3
:103C900000230193206841F2E54C0168C2F2000C58
:103CA0000191406841F2E441019001986364C2F2DD
:103CB0000001204601228CF8003002B0BDE810401F
:103CC000FFF72EB810B582B040F24054C2F20004A3
:103CD0002046FEF709FB00230193206841F2FC4CCB
:103CE0000168C2F2000C0191406841F2E441019088
:103CF000019841F2E540C2F200006364037041F2B2
:103D0000F440C2F20000036041F2D540C2F200006C
:103D1000037041F20050C2F20000036041F2F8402B
:103D2000C2F20000036041F2E040C2F20000036012
:103D3000C2F2000120460122CCF8003002B0BDE8FA
:103D40001040FEF7EDBF000050B341F2D543EFF352
:103D5000108C72B6C2F200031B78D3B141F2D84383
:103D6000C2F200031A7802705A7842705A88428070
:103D70005A68426029B141F2F440C2F20000006882
:103D80000860BCF1000F1CBF0120704762B6012023
:103D9000704700291CBF00200860BCF1000F01D053
:103DA0000020704762B600207047000070B584B0F4
:103DB000B0EEC00AB2EE042A20EE021AB6EE003AC5
:103DC0009FED3F0A31EE034AB4EE404AB0EE401A8E
:103DD000F1EE10FAB8BFB0EE441AB0EEE04A24EEAD
:103DE000022A32EE032AB4EE402AF1EE10FAB8BFEE
:103DF000B0EE420A012901D901245EE0931E1E2B78
:103E00004FF0010459D844F2450604FA03F3C4F212
:103E10000006334251D0BDEEC11A7B2511EE103A97
:103E2000BDEEC00A8DF805508DF806000225484009
:103E300010EE106A8DF807501D0A50408DF80A5098
:103E4000350A58408DF80C5080EA132040F2940552
:103E50007040C2F200058DF8081080EA162029781B
:103E60008DF80D6080F0790040F290068DF80E001C
:103E70007D200129C2F200068DF809208DF80B3053
:103E80008DF80F0009D1FDF7D5FD3168401A3128B2
:103E900003D8C0F13200FDF7E3FC40F24050C2F21B
:103EA00000000DF105010B226423FEF7A1FF04467B
:103EB000FDF7C0FD306001202870204604B070BDC1
:103EC00000FF7F4770B584B0B2EE042A80EE020A8C
:103ED000B6EE003AB0EEC00A20EE021A9FED3F0A9D
:103EE00031EE034AB4EE404AB0EE401AF1EE10FA59
:103EF000B8BFB0EE441AB0EEE04A24EE022A32EE29
:103F0000032AB4EE402AF1EE10FAB8BFB0EE420A2E
:103F1000012901D901245EE0931E1E2B4FF00104FC
:103F200059D844F2450604FA03F3C4F200063342BA
:103F300051D0BDEEC11A7B2511EE103ABDEEC00A7C
:103F40008DF805508DF806000325484010EE106AE4
:103F50008DF807501D0A50408DF80A50350A584018
:103F60008DF80C50704040F2940580EA1320C2F2A4
:103F700000058DF8081080EA162029788DF80D606C
:103F800080F0780040F290068DF80E007D20012927
:103F9000C2F200068DF809208DF80B308DF80F0065
:103FA00009D1FDF747FD3168401A312803D8C0F127
:103FB0003200FDF755FC40F24050C2F200000DF116
:103FC00005010B226423FEF713FF0446FDF732FDC3
:103FD000306001202870204604B070BD00FF7F478C
:103FE000FEE70000FEE7000080B540F29800C2F254
:103FF00000004FF48061FCF72DFA80BD70B540F2EF
:1040000000440546C4F20204002600BF05FA06F08B
:10401000C0B2C20920464FF40071FDF705FD012032
:10402000FDF792FB20464FF480710122FDF7FCFC66
:104030000120FDF789FB20464FF480710022FDF737
:10404000F3FC0120FDF780FB0136082EDED120466F
:104050004FF480710122FDF7E7FC0120FDF774FBAE
:1040600020464FF480710022FDF7DEFC0120BDE800
:104070007040FDF769BB000010B56420FDF7F0FB50
:1040800040F20044C4F2020420464FF48071012241
:10409000FDF7CAFC0120FDF757FB20464FF40071E5
:1040A0000122FDF7C1FC0120FDF74EFBAE2000F020
:1040B00055FBD52000F052FB802000F04FFBA820DC
:1040C00000F04CFB3F2000F049FBD32000F046FB02
:1040D000002000F043FB402000F040FBA12000F056
:1040E0003DFBC82000F03AFBDA2000F037FB12203D
:1040F00000F034FB812000F031FBCF2000F02EFBDC
:10410000D92000F02BFBF12000F028FBDB2000F091
:1041100025FB302000F022FBA42000F01FFBA6208E
:1041200000F01CFB8D2000F019FB142000F016FBA2
:10413000AF2000F013FB40F29800C2F200004FF4F1
:104140008061FCF787F9BDE8104000F091BA0000EB
:10415000F0B5C1B001AF14460D46064646AA384632
:1041600019460092FCF764F9304629463A46234640
:1041700000F092F941B0F0BD2DE9F04F87B0069202
:10418000A3B3069A03EB010E02EB00094FF0010CFA
:104190000D468A4606E000BF0AF1010A0FFA8AF5C9
:1041A000AE4523DD069A002AF6D00AF0070640F253
:1041B00098020CFA06F6ED08C2F200026FEA060851
:1041C00002EBC5170646054604E000BF01352EB2D6
:1041D000B145E1DD1FFA8AF43F2CF7D8ACB27F2C51
:1041E000F4D8BC5D04EA0804BC55EFE7013B03EBDF
:1041F0005373DA1001EB5173DF10DDF8189002925F
:1042000023F0070307EBE1320827CB1A019207EAF4
:10421000113109F003020B44039240F2980299B263
:10422000C3F10803C2F200029DB209F0FC08024487
:1042300000230027009205E00137029AFBB29A4260
:10424000C0F22681B9F1000FF6D0019A0493D61876
:10425000B9F1040F06F10103059780F095804FF046
:10426000000C039A0DF1100999E89002002AE3D09E
:10427000109A04FB092E0CEB00027F2A27D8072E88
:1042800011D840F29804C2F200041EF80C9004EB1E
:10429000C61B1BF802A009FA01F4DDE9057944EA1E
:1042A0000A040BF80240072B11D840F29804C2F21E
:1042B00000041EF80C9004EBC31B1BF802A029FAA3
:1042C00005F4DDE9057944EA0A040BF80240039A93
:1042D000012AB1D00CF1010909EB00027F2A21D893
:1042E000072E0ED840F29804C2F200041EF809A06E
:1042F00004EBC61717F802B00AFA01F444EA0B04FB
:10430000BC54072B0ED840F29804C2F200041EF8E9
:10431000099004EBC31717F802A029FA05F444EA40
:104320000A04BC54039ADDE90579022A3FF484AFFC
:104330000CF1020202EB000CBCF17F0F3FF67CAFE8
:10434000072E0FD840F29804C2F200041EF802A013
:1043500004EBC61616F80C700AFA01F43C43059FEC
:1043600006F80C40072B3FF667AF40F29806C2F202
:1043700000061EF8022006EBC31313F80C60EA4097
:10438000324303F80C2057E752FA87F4009A5FFA99
:1043900087FC02EBC41E109A19FB0C294FF0000C8D
:1043A00005E000BF0CF1040CE0453FF45AAF00EB10
:1043B0000C0ABAF17F0F16D8072E08D819F80C404E
:1043C0001EF80CB08C4044EA0B040EF80C40072B8E
:1043D00009D819F80C400EEB0C0292F88070EC40F2
:1043E0003C4382F880400AF101027F2A17D8072E49
:1043F00008D809EB0C0252780EEB0C0467788A405F
:104400003A436270072B0AD809EB0C0252780EEB84
:104410000C0494F88170EA403A4384F881200AF150
:1044200002027F2A17D8072E08D809EB0C029278CF
:104430000EEB0C04A7788A403A43A270072B0AD8E7
:1044400009EB0C0292780EEB0C0494F88270EA40AF
:104450003A4384F882200AF103027F2AA2D8072E69
:1044600008D809EB0C02D2780EEB0C04E7788A40EE
:104470003A43E270072B95D809EB0C02D2780EEB89
:104480000C0494F88370EA403A4384F8832089E767
:1044900007B0BDE8F08F00002DE9F04F89B0154658
:1044A00012780591002A069000F0DF800DF11F01BF
:1044B000881C0490C81C45F6600A98460390081DA5
:1044C000C0F6000A4FF0250B00264FF000090290BD
:1044D00016E0069845F66311C0F60001304401F17C
:1044E000BA07059900B2062208230097FFF744FE99
:1044F00006361FFA89F02A5C002A00F0B68000BF59
:1045000050B2B0F1FF3F13DC02F0E000C02809F127
:10451000010028D002F0F001E02930D002F0F801CB
:10452000F02940D081B26A5C8146002AE8D19CE043
:1045300000208DF820000698B8F1060F304400B234
:104540008DF81F207DD0B8F1080F40F08A8045F625
:104550009D31C0F6000101EB0211A1F5007705992C
:10456000082210237AE080B2285C8DF81F200028F2
:104570007BD08DF82000049809F102092EE080B26A
:10458000285C8DF81F2000286FD009F1020189B244
:10459000695C8DF82000002967D0039809F10309B0
:1045A0008DF821101AE080B2285C8DF81F200028B9
:1045B0005BD009F1020189B2695C8DF82000002905
:1045C00053D009F1030080B2285C8DF82110002837
:1045D0004BD08DF82200029809F104099AF80010D6
:1045E00000294FF00001017016D00024574600BF8B
:1045F00038460DF11F01FBF757FF48B10134A0B257
:1046000000FB0BF11AF8011000FB0BA70029EFD1FA
:10461000B8F1060F05D15CE75746B8F1060F3FF435
:1046200058AFB8F1080F7FF464AF0698059930448D
:10463000053700B2102210230097FFF79DFD1036BA
:1046400057E702EB420145F66312C0F6000202EBA7
:104650004101A1F1C0070599062208230097FFF741
:104660008BFD09F10109464443E709B0BDE8F08F2D
:1046700010B5B02000F072F8102000F06FF80020A4
:1046800000F06CF840F29804C2F200042046802149
:1046900000F0B4F8B12000F061F8102000F05EF8EE
:1046A000002000F05BF804F18000802100F0A6F803
:1046B000B22000F053F8102000F050F8002000F075
:1046C0004DF804F58070802100F098F8B32000F0D8
:1046D00045F8102000F042F8002000F03FF804F503
:1046E000C070802100F08AF8B42000F037F8102064
:1046F00000F034F8002000F031F804F5007080215B
:1047000000F07CF8B52000F029F8102000F026F821
:10471000002000F023F804F52070802100F06EF8EE
:10472000B62000F01BF8102000F018F8002000F070
:1047300015F804F54070802100F060F8B72000F013
:104740000DF8102000F00AF8002000F007F804F53A
:1047500060708021BDE8104000F050B8B0B540F264
:104760000044C4F20204054620464FF400710122C1
:10477000FDF75AF90120FCF7E7FF20464FF480715E
:104780000122FDF751F90120FCF7DEFF20464FF42E
:1047900000710022FDF748F90120FCF7D5FF204603
:1047A0004FF480710022FDF73FF90120FCF7CCFFA8
:1047B0007820FFF723FC0020FFF720FC2846FFF7B6
:1047C0001DFC20464FF400710022FDF72DF9012059
:1047D000FCF7BAFF20464FF480710122FDF724F95F
:1047E0000120FCF7B1FF20464FF400710122FDF7D4
:1047F0001BF90120BDE8B040FCF7A6BF70B540F240
:104800000044C4F202040D46064620464FF40071EF
:104810000122FDF709F90120FCF796FF20464FF42D
:1048200080710122FDF700F90120FCF78DFF204681
:104830004FF400710022FDF7F7F80120FCF784FF28
:1048400020464FF480710022FDF7EEF80120FCF7BE
:104850007BFF7820FFF7D2FB4020FFF7CFFB3DB175
:10486000013E00BF16F8010FFFF7C8FB013DF9D16B
:1048700020464FF400710022FDF7D6F80120FCF726
:1048800063FF20464FF480710122FDF7CDF801202F
:10489000FCF75AFF20464FF400710122FDF7C4F8DF
:1048A0000120BDE87040FCF74FBF000070470000DA
:1048B00070470000FDF7C4B870B592B006AC204652
:1048C0003021FBF7C7FD002543F640000595CDE9F3
:1048D0000355CDE901550095C4F202000168022696
:1048E00041F080510160006800F080500090009815
:1048F00047F200000095C4F20000016841F48041D5
:1049000001600068A82100F4804000900098012018
:1049100006904FF4803007904FF480000D900420F3
:104920000E90119020460C96CDE90F16FDF758FA1F
:1049300008B172B6FEE70F20CDE901064FF4A05092
:1049400004904FF48050059001A805210395FDF7D0
:1049500033F910B172B600BFFEE712B070BD0000AF
:104960004EF68850CEF20000016841F470010160FB
:104970007047000040F2B040C2F20000FDF704BCF6
:1049800040F2D050C2F20000FDF79CBD806B0021C8
:10499000C185FDF75FBD000081B090F8421022296B
:1049A00020D183680246B3F5805F08D152F8281FF2
:1049B00052F8183C002B61D003685B6809E052F89C
:1049C000281F13B90369002BF6D003685B6803F056
:1049D0007F030B70116801311160C18D01390A0428
:1049E000C18501D001B070470168CA6822F0200279
:1049F000CA60CA6822F48072CA604A6922F0010261
:104A00004A61202180F8421000214163026B012A93
:104A10003CD10163016851E8031F026821F01001D5
:104A200042E80313DBB1016851E8031F026821F07B
:104A3000100142E8031393B1016851E8031F0268B3
:104A400021F0100142E803134BB1016851E8031F44
:104A5000026821F0100142E80313002BDAD101684B
:104A60000A68D20606D5002200920A6800924968B8
:104A700000910099818D01B0FDF734BC0268526845
:104A80006FF35F2221F8022B8162A6E701B0FEF7E7
:104A900071B90000B0B50446006804F108030ECBFC
:104AA0000569194325F440552A4302616269E369A7
:104AB0001143C268194349F20C639A431143C16020
:104AC0004169A26921F4407141F20043114340F46D
:104AD0008062C4F201039A42416102D1FDF736F9C6
:104AE00001E0FDF71FF9E1694FF69C756368192233
:104AF000C0F6FF75B1F5004FA0FB02011CD15A00B2
:104B0000DB0FFBF71DFC48F21F51C5F2EB11A0FBB8
:104B100001235A0905F1805302FB0300322303EB02
:104B2000C000A0FB01014FF4F87000EA111000EB87
:104B30000210C1F3421118E09A009B0FFBF700FC32
:104B400048F21F51C5F2EB11A0FB01235A0902FBE9
:104B50000500322303EB0010A0FB0101F02000EA66
:104B6000511000EB0210C1F3431108442168886022
:104B7000B0BD000040F2F840C2F20000FDF7A2BC58
:104B800041F21451C2F200010868421C40F2405048
:104B9000C2F200000A60FDF795BC000040F28850A8
:104BA000C2F20000FDF78EBC40F21860C2F20000B5
:104BB000FDF788BC10B582B040F21864C2F2000460
:104BC0002046FDF791FB0023019320680122016834
:104BD0000191406841F2115101900198C2F2000127
:104BE0002046636402B0BDE81040FEF799B80000AB
:104BF000FEE7000084B0FCF731FFFFF75DFEFEF733
:104C0000BBFEFEF75DFFFEF779FFFEF795FFFFF7AE
:104C100033FAFCF7B1FCFCF729FDFFF7CBFFFEF7F9
:104C2000D5F900BFFFF74EF818B10120FCF718FEC8
:104C3000F8E74FF47A70FCF713FE40F2405040F270
:104C40001101C2F20000C2F200010B226423FEF740
:104C5000CFF810B172B600BFFEE73220FCF700FEBD
:104C600040F2405040F21C01C2F20000C2F20001CA
:104C70000B226423FEF7BCF808B172B6FEE74FF4CE
:104C8000FA60FCF7EDFD40F2405040F20601C2F23E
:104C90000000C2F200010B226423FEF7A9F810B154
:104CA00072B600BFFEE7FCF7C5FE40F2A84841F22D
:104CB000085740F2706440F26C659FED53CA9FED57
:104CC000538A9FED539A41F20C5A0646C2F20008ED
:104CD0000DF108090DF1040BC2F20007C2F2000445
:104CE000C2F20005B3EE04DAB2EE00AAC2F2000A84
:104CF000B2EE04EA10E000BF012001212022B0EE54
:104D0000490AF0EE480AFFF7DDF8002869D0FCF701
:104D100091FE801B322871D2FEF7A0F998F80000AE
:104D200038B140F2A440C2F20000006828600120BF
:104D3000207048465946FFF707F830B30198DAF873
:104D40000010884221D003994BF2C532C9F2A21259
:104D500052FB0112D31203EBD2724FF4616302FBD8
:104D60001311002948BF01F5616100EE101AB8EE79
:104D7000400A80EE0E0ACAF8000041F20450C2F266
:104D8000000080ED000A01203870FCF755FCAA28CD
:104D9000BDD138780028BAD020780028B7D041F2A9
:104DA0000450C2F2000090ED000A95ED001AB0EE3A
:104DB0004CBA31EE400AB0EEC01AB4EE4D1AF1EE24
:104DC00010FA99DDB5EE400AB0EE481A30EE0CBA92
:104DD000F1EE10FAC8BFB0EE401AA8BFB0EE41BA6B
:104DE0008AE73220FCF73CFD012000212022B0EEB2
:104DF0004B0AF0EE4A0AFEF7D9FF88E7FCF71AFEE5
:104E00000646FCF7B9FB87E70000B443000000004A
:104E100000007A445FEA400C08BF91F0000F4FEAAF
:104E20008C234FEAC12243EA51514FEA1C5018BF6C
:104E300000F5F0404FEA300018BF41F000415FEA52
:104E40006C5C00F02980BCF1FF3F08BF40F080405F
:104E50007047130C06BF12044FF0100C4FF0000CFB
:104E6000130E04BF12020CF1080C130F04BF120141
:104E70000CF1040C930F04BF92000CF1020CD30F41
:104E800004BF52000CF1010C11464FF00002A0F1DA
:104E90001F00A0EB0C00704711F0004F08BF7047D7
:104EA00031F000413FF4D5AF0B0C06BF09044FF0C1
:104EB000100C4FF0000C0B0E04BF09020CF1080C93
:104EC0000B0F04BF09010CF1040C8B0F04BF890008
:104ED0000CF1020CCB0F04BF49000CF1010CCCF11A
:104EE000200322FA03F341EA030102FA0CF2A0EBD9
:104EF0000C0000F10100704723F07F4720F07F4C49
:104F000080EA030000F00040ACEB070303F57C539C
:104F100003F1FF032DE9804909B44FEA144324EA61
:104F200003484FEA154B25EA0B4E0FF2042606EB19
:104F300013273E7803FB0667C7F5000707FB06F655
:104F40004FEAD64606F102064FEA543707FB066CD5
:104F5000CCF1005C4FEA1C472CEA074C0CFB06F531
:104F600007FB06F404EB15464FEA961649085FEA7C
:104F7000320234BF00204FF000404FEAD13706FB29
:104F800007FC4FEA1C4C0CFB0BF7D21B03FB0CF786
:104F900061EB07010CFB0EF7B0EB074072EB174219
:104FA0000CFB08F734BFA2EB0742B2EB074261EB00
:104FB00017414FEA0C444FEA910706FB07FC4FEA02
:104FC0001C4C0CFB0BF7B0EBC74072EB573203FBEA
:104FD0000CF734BFA2EBC742B2EBC74261EB5731CB
:104FE0000CFB0EF7B0EBC70072EB57720CFB08F727
:104FF00034BFA2EBC702B2EBC70261EB57714FEAB5
:10500000816141EA92114FEA826242EA90124FEACC
:10501000806004EBCC04039F4FEAD13706FB07FC0A
:105020004FEA1C4C0CFB0BF7D21B03FB0CF761EB9C
:1050300007010CFB0EF7B0EB074072EB17420CFBBD
:1050400008F734BFA2EB0742B2EB074261EB17410E
:105050004FEA8C5504EB9C244FEA910706FB07FCB2
:105060004FEA1C4C0CFB0BF7B0EBC74072EB57320E
:1050700003FB0CF734BFA2EBC742B2EBC74261EBB4
:1050800057310CFB0EF7B0EBC70072EB57720CFBFD
:1050900008F734BFA2EBC702B2EBC70261EB57714E
:1050A0004FEA816141EA92114FEA826242EA90122C
:1050B0004FEA806015EB4C2544F100044FEAD137EC
:1050C00006FB07FC4FEA1C4C0CFB0BF7D21B03FB47
:1050D0000CF761EB07010CFB0EF7B0EB074072EB2E
:1050E00017420CFB08F734BFA2EB0742B2EB0742B2
:1050F00061EB17414FEA813141EA92414FEA823236
:1051000042EA90424FEA80304FEA0C7615EB1C15CC
:1051100044F1000448EA03434EEA0B484FF0000E06
:10512000B2EB080C71EB030724BF624639464EEB25
:105130000E0E4FF0000B0018524149414BEB0B0B88
:10514000B2EB080C71EB03077BF1000B24BF624646
:1051500039464EEB0E0E4FF0000B001852414941FC
:105160004BEB0B0BB2EB080C71EB03077BF1000B65
:1051700024BF624639464EEB0E0E51EA020718BFB5
:1051800046F0010616EB0E7655F1000254F10001CF
:1051900003D5BDE88901BDE80088BDE88901BDE807
:1051A0000048B619524141EB0101A3F101037047D8
:1051B00080807F7E7D7C7B7A797877767675747354
:1051C000727171706F6E6E6D6C6C6B6A6A69686813
:1051D000676666656464636362616160605F5F5EA9
:1051E0005E5D5D5C5C5B5B5A5A595958585757561F
:1051F0005655555554545353525252515150505084
:105200004F4F4F4E4E4D4D4D4C4C4C4B4B4B4A4AD5
:105210004A49494948484847474747464646454519
:105220004544444444434343434242424241414152
:105230009C46002B30D477002BD04FEA37071CB5A3
:1052400003B44FF010004FF01001BAF1000F06D078
:10525000BCF1000FDCBF40F0080040F008014FF047
:1052600000000FBCBDE810400BF1010BBBF1010FBA
:1052700008BF5FEA170722BF12F1010211F1010115
:105280004FF0004143F1000300F0004043EA00000A
:105290007047F9D35708D0E746EA06464FEA164664
:1052A00013F1400F1FDD13F1200FDFBF16430A4635
:1052B000002120335B42BED0C3F1200746EA0646F8
:1052C0004FEA164602FA07F746EA070622FA03F201
:1052D000C3F1200701FA07F742EA070221FA03F1B6
:1052E0004FF00003A7E746EA020646EA06464FEA01
:1052F000164646EA0106BCBF46EA0646360C4FF0A3
:1053000000034FF000024FF0000194E72DE9804CBC
:1053100070B49A46934691E8380007C831EA400CC9
:1053200048BF34EA430C03D5FFF7E6FDFFF780FFE3
:10533000F0BCBDE8008C2DE9804C70B49A469346D1
:1053400091E8380007C810F0804F08BF13F0804F75
:1053500003D100F005F8FFF76BFFF0BCBDE8008C4F
:1053600020F07F4723F07F4C80EA030000F00040EC
:1053700007EB0C03A3F57C53A3F1FE0392F0000F9F
:1053800000F0B38095F0000F00F077802DE901491F
:105390004FEA114021EA00484FEA144624EA064742
:1053A00000FB06FC08FB06F607FB08F818EB0648AE
:1053B0004CEB164C00FB07F718EB07484CEB17407B
:1053C0004FEA124B22EA0B4E4FEA154625EA0647F2
:1053D0000BFB06FC0EFB06F607FB0EFE1EEB064E55
:1053E0004CEB164C0BFB07F71EEB074E4CEB174B29
:1053F00018EB0B0840F1000018EB0E0B58EB0008FF
:1054000040F100008F1A4FF000014FF000063CBF42
:10541000C943661B14BFB5EB040C00213CBFC94354
:10542000F61B4FEA174427EA04454FEA1C472CEACB
:10543000074C04FB076205FB07F70CFB05F616EBB0
:10544000074642EB174204FB0CFC16EB0C4642EB02
:105450001C421BEB060658EB020241414EEA8E0E3F
:1054600046EA9E0601D5BDE80189B619524141EBD5
:105470000101A3F10103BDE801894FEA144524EAC3
:1054800005464FEA114721EA074C05FB07F406FBE6
:1054900007F70CFB06F111EB074144EB174405FB42
:1054A0000CFC11EB0C4144EB1C444FEA124722EA7E
:1054B000074C05FB07F206FB07F70CFB06F616EB9D
:1054C000074642EB174205FB0CFC16EB0C4642EB81
:1054D0001C456A1854F1000148BF7047B619524183
:1054E00041EB0101A3F10103704795F0000F37D0A4
:1054F0004FEA114221EA02464FEA144724EA074CD8
:1055000002FB07F106FB07F70CFB06F414EB07445C
:1055100041EB174102FB0CFC14EB0C4441EB1C412A
:105520004FEA154725EA074C02FB07F506FB07F78C
:105530000CFB06F616EB074645EB174502FB0CFC89
:1055400016EB0C4645EB1C42121951F1000148BF05
:105550007047B619524141EB0101A3F101037047B5
:105560004FEA144524EA05464FEA114721EA074C61
:1055700005FB07F106FB07F70CFB06F212EB0742EF
:1055800041EB174105FB0CFC12EB0C4251EB1C41AB
:105590004FF0000648BF7047921841EB0101A3F19C
:1055A0000103704703B401984100009850EAC120FC
:1055B00018BF04204A0D18BF40F0010040F2FF72EE
:1055C000B2EB515F08BF40F00200012808BF052080
:1055D00002B0704730380A2801D2012070470020FD
:1055E0007047000010B500290AD00878002807D0BD
:1055F00005487844FAF758FF002801D0002010BD74
:105600000248784410BD0000BE0B0000B60B00003D
:1056100010B500290AD00878002807D0054878443A
:10562000FAF742FF002801D0002010BD024878445C
:1056300010BD0000AE0B0000A60B00000808A0F58E
:1056400000114FEA3101704743004FEAD30C4FEA93
:105650003C0C43401FBF40070CF1605113F0FE4F5C
:1056600070471CF0006F03D10CF000410020704720
:105670000CF0004343EA507040EACC0010B500F053
:105680000EF800BF000000924FEA0001FFF7D6BFFE
:105690004FF00041A1F500214FF0000070470EF1DE
:1056A000020E2EF0030E5EF8044B244204D44FEA9F
:1056B0004102B2F17F4F11D84FEA4003B3F17F4F5F
:1056C0000CD80ED14FEAD07C0CEB4C0C0CF1020C38
:1056D000B2F17F4F08BF4CEBD17C04E04FF0080CD7
:1056E00001E04FEAD17C0CEB4C0324FA03F404F004
:1056F0000704B4F1040C06D20EEB840CBDE8104094
:105700004CF0010C6047DFE80CF0070802024FF094
:105710000040A0F5800010BD0846420018BFD2F13D
:10572000807288BF00F0004010BDF1EE100A4FF605
:10573000FF71C0F2C03120EA010040F04070E1EE9C
:10574000100A7047FBF71ABBFBF74EBC00000000C5
:1057500000000000303132333435363738394142B9
:1057600043444546403058003031323334353637C3
:10577000383961626364656640307800040000086F
:105780000000000000000002000100001030313273
:105790003334353637383961626364656678700052
:1057A0003031323334353637383941424344454657
:1057B0005850000002400000000000A0000000005F
:1057C00005400000000000C8000000000C40000080
:1057D0000000409C00000000194000000020BCBEFA
:1057E0000000000034400000BFC91B8E0000000410
:1057F000B5400000504BCFD06607E2CF010000005B
:105800006C4100003E8251AADFEEA7340100000087
:10581000D9420000DCB5A0E23A301F97FFFFFFFF3E
:10582000B4450000FD25A0C8E9A3C14FFFFFFFFF5D
:10583000FF3F00000000008000000000FF3F00006C
:1058400000000080000000000000000000000000D8
:105850000102030406070809000000000102030416
:10586000EFBC8C0000000000000000000000000001
:105870000000000000000058380000000000000098
:105880000000000000E38082000000000000000033
:105890000000000000000000000000001824241890
:1058A00000000000000000000000E4BDA0000000B7
:1058B0008060F8074020180F08C808082818000161
:1058C0000000FF00100C0340807F0001061800E577
:1058D000A5BD00001010F01F10F000808282E2923F
:1058E0008A868000402215081661000040807F00F3
:1058F00000000000E4B8960000202020FE2020FFD9
:10590000202020FF20202020000000007F40404772
:10591000444444474040400000E7958C00000000AC
:1059200000FE929292FE929292FE00000000080801
:105930000484621E010001FE020404080800000045
:10594000000000FF01010131090909098971010104
:105950000101FFFF80808080808096818080808030
:105960008080FF0000000000000000002F00000009
:10597000000700070000147F147F1400242A7F2AE8
:1059800012002313086462003649552250000000BB
:1059900007000000001C224100000041221C000002
:1059A00014083E08140008083E0808000000A06023
:1059B00000000808080808000060600000002010CF
:1059C000080402003E5149453E0000427F4000006D
:1059D0004261514946002141454B31001814127F64
:1059E00010002745454539003C4A494930000171BE
:1059F00009050300364949493600064949291E0070
:105A0000003636000000005636000000081422411F
:105A100000001414141414000041221408000201A0
:105A2000510906003E4955592E007C1211127C0086
:105A30007F49494936003E41414122007F41412290
:105A40001C007F49494941007F09090901003E4185
:105A500049497A007F0808087F0000417F41000023
:105A60002040413F01007F08142241007F40404018
:105A700040007F020C027F007F0408107F003E413F
:105A800041413E007F09090906003E4151215E0067
:105A90007F091929460046494949310001017F0122
:105AA00001003F4040403F001F2040201F003F407A
:105AB00038403F00631408146300070870080700AB
:105AC000615149454300007F414100000204081034
:105AD00020000041417F0000040201020400404018
